S01A0000504F445F44617461436F6C6C656374696F6E2E7372656342
S11300000C9434000C9449000C9449000C9449005D
S11300100C9449000C9449000C9449000C94490038
S11300200C9449000C9449000C9449000C94490028
S11300300C9449000C9449000C9449000C94490018
S11300400C9449000C9449000C9449000C94490008
S11300500C9449000C9449000C9449000C944900F8
S11300600C9449000C94490011241FBECFEFD8E032
S1130070DEBFCDBF11E0A0E0B1E0E0E5F9E002C0F1
S113008005900D92AE30B107D9F70E94D8010C94B7
S1130090A6040C9400001092C50087E68093C40067
S11300A0E1ECF0E0808188618083E2ECF0E0808123
S11300B0866080830895E0ECF0E0908195FFFDCFA9
S11300C08093C60008959AB161E070E002C0660FA3
S11300D0771F8A95E2F7962B9AB98BB1862B8BB949
S11300E02FEF34E38CE0215030408040E1F700C032
S11300F000009BB1862F809598239BB99FEF20EE3B
S113010030E0915020403040E1F700C000009BB146
S1130110962B9BB99FEF23EF31E091502040304064
S1130120E1F700C000009AB189238AB9E5E5F0E05F
S113013041E050E020E030E089B190E19A95F1F798
S113014090E086239723959587958417950751F416
S11301502F5F3F4F85E08A95F1F700002F3F31056F
S113016059F70CC049B150E046235723559547959C
S11301702F3F310521F03197E9F601C089B18FEFA6
S11301809FEF08955F9AEAE7F0E0808180648083BE
S1130190808186FDFDCF609178007091790080E0C8
S11301A090E00E945A030895CF92DF92EF92FF925B
S11301B0CF93DF936B017C0120E030E0A9010E9422
S11301C0AD0288231CF48DE20E945B00C701B601D6
S11301D00E942403EB01072E000C880B990B0E944C
S11301E05C039B01AC01C701B6010E94400220E000
S11301F030E04AE754E40E9411046B017C01C436E8
S1130200D10574F0CE0168EE73E00E947E04EC0127
S113021064E670E00E947E0480E3860F0E945B0027
S1130220CA30D10574F0CE0164E670E00E947E0409
S1130230EC016AE070E00E947E0480E3860F0E9475
S11302405B00CE016AE070E00E947E04805D0E9443
S11302505B008EE20E945B0020E030E048EC52E458
S1130260C701B6010E940C04882314F1C701B6012A
S11302700E942403CB0168EE73E00E947E04BC015B
S1130280990F880B990B0E945C036B017C0120E0A1
S113029030E048EC52E40E94B20220E030E040E456
S11302A052E40E9441020E942B03862F0E945B00AD
S11302B020E030E040E251E4C701B6010E940C04A2
S11302C0882314F1C701B6010E942403CB0164E61C
S11302D070E00E947E04BC01990F880B990B0E9468
S11302E05C036B017C0120E030E040E251E40E94B9
S11302F0B20220E030E040E452E40E9441020E9455
S11303002B03862F0E945B00C701B6010E942403C1
S1130310CB016AE070E00E947E04BC01990F880B57
S1130320990B0E945C0320E030E040E452E40E9418
S113033041020E942B03862F0E945B00DF91CF9124
S1130340FF90EF90DF90CF900895EF92FF920F937C
S11303501F93CF93DF93CDB7DEB72C970FB6F894E6
S1130360DEBF0FBECDBF8CE0E0E0F1E0DE01119610
S113037001900D928A95E1F78E010F5F1F4F7E0168
S11303808DE0E80EF11CF80181918F010E945B0061
S11303900E151F05C1F72C960FB6F894DEBF0FBEDD
S11303A0CDBFDF91CF911F910F91FF90EF900895F2
S11303B0529A5A9A579A5F98EAE7F0E080818068E7
S11303C08083ECE7F0E080818F7080830E944B0093
S11303D000E010E09801B901A80182E090E00E94D9
S11303E0630099235CF40E94A5018CE20E945B00E7
S11303F00E94A5018CE20E945B0010C060E070E0E6
S1130400CB010E94D4008CE20E945B0060E070E0AB
S1130410CB010E94D4008CE20E945B0087E090E054
S11304200E94C2000E94D4008BE30E945B008CE314
S113043090E02FEF34E34CE0215030404040E1F7AE
S113044000C000002FEF34E34CE021503040404026
S1130450E1F700C000002FEF34E34CE021503040BE
S11304604040E1F700C000002FEF34E34CE021509E
S113047030404040E1F700C000000197D1F6A8CF1A
S11304805058BB27AA270E9458020C94D2030E94FA
S1130490C40338F00E94CB0320F039F49F3F19F4D1
S11304A026F40C94C1030EF4E095E7FB0C94BB0313
S11304B0E92F0E94E30358F3BA176207730784070E
S11304C0950720F079F4A6F50C9405040EF4E09554
S11304D00B2EBA2FA02D0B01B90190010C01CA01FA
S11304E0A0011124FF27591B99F0593F50F4503EA5
S11304F068F11A16F040A22F232F342F4427585F97
S1130500F3CF469537952795A795F0405395C9F7AE
S11305107EF41F16BA0B620B730B840BBAF0915066
S1130520A1F0FF0FBB1F661F771F881FC2F70EC005
S1130530BA0F621F731F841F48F4879577956795D8
S1130540B795F7959E3F08F0B0CF9395880F08F0C4
S11305509927EE0F9795879508950E94970308F4BD
S113056081E008950E94C6020C94D2030E94CB033A
S113057058F00E94C40340F029F45F3F29F00C9422
S1130580BB0351110C9406040C94C1030E94E303B1
S113059068F39923B1F3552391F3951B550BBB27AE
S11305A0AA2762177307840738F09F5F5F4F220FF3
S11305B0331F441FAA1FA9F335D00E2E3AF0E0E8EA
S11305C032D091505040E695001CCAF72BD0FE2F34
S11305D029D0660F771F881FBB1F261737074807C8
S11305E0AB07B0E809F0BB0B802DBF01FF27935880
S11305F05F4F3AF09E3F510578F00C94BB030C9486
S113060006045F3FE4F3983ED4F3869577956795A7
S1130610B795F7959F5FC9F7880F911D96958795B4
S113062097F90895E1E0660F771F881FBB1F6217D3
S113063073078407BA0720F0621B730B840BBA0B91
S1130640EE1F88F7E09508950E942B036894B1117A
S11306500C94060408950E94EB0388F09F5798F0C9
S1130660B92F9927B751B0F0E1F0660F771F881FB3
S1130670991F1AF0BA95C9F714C0B13091F00E94CD
S11306800504B1E008950C940504672F782F88279A
S1130690B85F39F0B93FCCF3869577956795B395F4
S11306A0D9F73EF490958095709561957F4F8F4F63
S11306B09F4F0895E89409C097FB3EF49095809568
S11306C0709561957F4F8F4F9F4F9923A9F0F92F14
S11306D096E9BB279395F695879577956795B79592
S11306E0F111F8CFFAF4BB0F11F460FF1BC06F5F78
S11306F07F4F8F4F9F4F16C0882311F096E911C08A
S1130700772321F09EE8872F762F05C0662371F0AA
S113071096E8862F70E060E02AF09A95660F771FBE
S1130720881FDAF7880F9695879597F90895990F9A
S11307300008550FAA0BE0E8FEEF16161706E807A7
S1130740F907C0F012161306E407F50798F0621BC8
S1130750730B840B950B39F40A2661F0232B242B9D
S1130760252B21F408950A2609F4A140A6958FEFBC
S1130770811D811D089597F99F6780E870E060E00E
S113078008959FEF80EC089500240A941616170626
S113079018060906089500240A941216130614066E
S11307A005060895092E0394000C11F4882352F0D1
S11307B0BB0F40F4BF2B11F460FF04C06F5F7F4F89
S11307C08F4F9F4F089557FD9058440F551F59F070
S11307D05F3F71F04795880F97FB991F61F09F3F2A
S11307E079F087950895121613061406551FF2CF53
S11307F04695F1DF08C0161617061806991FF1CFA3
S113080086957105610508940895E894BB276627C9
S11308107727CB0197F908950E94970308F48FEF87
S113082008950E9424040C94D2030E94C40338F057
S11308300E94CB0320F0952311F00C94BB030C947D
S1130840C10311240C9406040E94E30370F3959FE2
S1130850C1F3950F50E0551F629FF001729FBB27B3
S1130860F00DB11D639FAA27F00DB11DAA1F649F4F
S11308706627B00DA11D661F829F2227B00DA11D02
S1130880621F739FB00DA11D621F839FA00D611D88
S1130890221F749F3327A00D611D231F849F600DA9
S11308A0211D822F762F6A2F11249F5750409AF0D2
S11308B0F1F088234AF0EE0FFF1FBB1F661F771F5E
S11308C0881F91505040A9F79E3F510580F00C9429
S11308D0BB030C9406045F3FE4F3983ED4F386957F
S11308E077956795B795F795E7959F5FC1F7FE2BC9
S11308F0880F911D9695879597F9089597FB072E74
S113090016F4009407D077FD09D00E94920407FCE6
S113091005D03EF4909581959F4F0895709561950B
S11309207F4F0895AA1BBB1B51E107C0AA1FBB1F21
S1130930A617B70710F0A61BB70B881F991F5A9567
S1130940A9F780959095BC01CD010895F894FFCF47
S111095053656E736F72204572726F720000F1
S9030000FC
